:060000000C943F000C947B
:1000060000000C9400000C9400000C9400000C946A
:1000160000000C9400000C9483000C9400000C94D7
:1000260000000C9400000C9400000C9400000C944A
:1000360000000C9400000C9400000C9400000C943A
:1000460000000C9400000C9400000C9400000100C9
:1000560001004242464A526242420000001001003C
:100066000200540001000500560008006002580016
:100076000400680260000000F894EE27ECBBF1E093
:10008600FBBFEBBFE5BF8DE0A2E0BB27ED938A95F2
:10009600E9F780E098E0A0E6ED930197E9F7E4E65A
:1000A600F0E085919591009761F0A591B591059045
:1000B6001590BF01F00105900D920197E1F7FB0144
:1000C600F0CFEFE5EDBFE8E0EEBFC0E6D2E00C947E
:1000D6006C00E0E0E1BBEFEFE2BBE4BBE0E0E5BBD8
:1000E600EFEFEABBEBBBE0E0EFBDEAE0EEBDEEE42E
:1000F600EBBDE0E2EABDE0E1E9BF7894FFCFFFCFD8
:100106000A921A92FA926A937A938A939A93AA9384
:10011600BA93EA93FA93EFB7EA9320FC03C0D0D0E0
:10012600A03009F484C0829917C0D1D0829BFECF3B
:10013600E52DF0E031970F01E059FD4FA081F00168
:10014600E859FD4FE081EA2319F4C5D0EA2B02C035
:10015600C2D0EA27D001EC9380990FC0B8D0809B1B
:10016600FECFAED0A03821F4C3D0A1E0A08305C055
:10017600BFD0DF01EC91EE0FEC9384990FC0A7D0AE
:10018600849BFECF9DD0A13021F4B2D0A0E8A083FD
:1001960005C0AED0DF01EC91E695EC9381991AC0CB
:1001A60096D0819BFECFE1E0E51541F4E09168022F
:1001B600E0936F02E0E0E09368020CC0E52DF0E00A
:1001C6003297E859FD4FDF0193D0E081EC9390D050
:1001D600A0E0A083839918C07AD0839BFECFE8E085
:1001E600E51541F4E0916F02E0936802E0E0E093E8
:1001F6006F020AC0A52DB0E0A859BD4F79D0E081A5
:10020600EC9376D0A0E0A083E52DF0E03197BF0116
:10021600DF01E05AFD4F0F01FD01E059FD4FA081BE
:10022600FB01E859FD4FE081EA2BD001EC93E52D67
:10023600E150A1E00E948B01E095EBBBE52DF0E0DB
:100246003197E05AFD4FE081E5BBAAE0B0E00E949D
:100256008101E8E0E51519F4E1E05E2E01C0539452
:10026600829902C020FC01C01DC031D0829BFECF06
:10027600E0E0E0936002E0936102E0936202E093C3
:100286006302E0936402E0936502E0936602E09302
:100296006702A0917302E0916B02EA2BE09363027E
:1002A600E89420F8E991EFBFF991E991B991A99104
:1002B6009991899179916991F99019900990189578
:1002C600E52DF0E03197E859FD4FA0810895A4E1AE
:1002D600B0E00C948101E52DF0E03197BF01E059C3
:1002E600FD4F0F01A081FB01E859FD4FE081089504
:1002F600E52DF0E03197E859FD4F0895109639F055
:1003060080ED97E00197F1F7A8951197C9F7089541
:10031600EE230E2EEA2F19F0EE0F0A94E9F7089550
:00000001FF
